:020000040020DA
:10200000787200208D22200077C6200075C620003F
:1020100075C6200075C6200075C6200000000000AF
:1020200000000000000000000000000075C6200055
:1020300075C620000000000075C62000DDC6200027
:10204000FFC6200005C720000BC7200011C72000D5
:1020500000000000E3C62000E9C6200075C620008D
:1020600075C6200000000000000000000000000015
:10207000000000000000000075C620000000000005
:10208000000000000000000075C6200075C620009A
:1020900075C6200075C6200075C6200075C62000D4
:1020A00075C6200075C6200075C6200075C62000C4
:1020B00075C6200075C6200075C6200075C62000B4
:1020C00075C6200075C6200075C6200075C62000A4
:1020D00075C62000000000000000000000000000A5
:1020E00000000000000000000000000000000000F0
:1020F0000000000000000000D53A2000E53A200072
:1021000000000000000000000000000000000000CF
:1021100000000000000000000000000000000000BF
:1021200000000000000000000000000000000000AF
:10213000000000000000000000000000000000009F
:10214000000000000000000000000000000000008F
:10215000000000000000000000000000000000007F
:10216000000000000000000000000000000000006F
:10217000000000000000000000000000000000005F
:10218000000000000000000000000000000000004F
:10219000000000000000000000000000000000003F
:1021A000000000000000000000000000000000002F
:1021B000000000000000000000000000000000001F
:1021C000000000000000000000000000000000000F
:1021D00000000000000000000000000000000000FF
:1021E00000000000000000000000000000000000EF
:1021F00000000000000000000000000000000000DF
:1022000000000000000000000000000000000000CE
:1022100000000000000000000000000000000000BE
:1022200000000000000000000000000000000000AE
:10223000000000000000000000000000000000009E
:10224000000000000000000000000000000000008E
:10225000000000000000000000000000000000007E
:10226000000000000000000000000000000000006E
:1022700075C62000C9392000E1392000BD32200098
:10228000453C2000A12C200075C6200008B5094B54
:10229000FF221A600848094A4824E3690849121ACB
:1022A00098470848084AA3690021121A984700F085
:1022B0000DF8FEE7B4200D4040400020E941002029
:1022C000D8EF2000F0410020776A00202DE9F0438C
:1022D00085B000F03FFE00F0E3FE00F07DFE00F070
:1022E0003DFC01F09DFC0AF0C5FA00F0D1FE00F0C3
:1022F000FBF820200AF0C2F902F0A4FA00F016FE62
:10230000002000F027FD012000F024FD604900209E
:1023100000F0F6FD02F0F2FB0AF0E9F908200AF0FD
:10232000ADF95C480AF018FA5B480AF015FA00208B
:1023300002F006FC01F068FB0021584802F028FB7F
:1023400002F0C2F80AF0C6F900F0DAFF00F0F6FF7A
:10235000022000F07DFA08F0D9FA012000F078FAA6
:1023600008F0D4FA6846082101F07EFC9DF8073099
:102370009DF806704A4C43EA07276B4603CB02AB35
:1023800083E803008022474E8DF8082020606160BA
:1023900003CB3060716044486D4601F09FFC4FF004
:1023A000000814F80810414808F1010801F096FCF3
:1023B000B8F1070FF5D13A4B3D48D97901F08EFCC1
:1023C0003C4801F08BFC4FF0000816F80810374825
:1023D00008F1010801F082FCB8F1070FDFF8C490A2
:1023E000F3D1354E99F80710314801F077FCF36AC4
:1023F0004AF6CD3102209847F36A394603209847C0
:10240000F36A1A210120984729460822736B0B2092
:1024100098472A4801F062FC294B18680AF09CF999
:10242000284801F05BFC284B18680AF095F927480A
:1024300001F054FC264B18680AF08EF9254A2368EF
:10244000136063685360244AD9F800301360D9F8E8
:102450000430536008F096FB2048002102F098FAFF
:1024600000211F4802F094FA0AF0DAF91D480AF038
:10247000CDF900F061FD10200AF000F900F062FDD6
:1024800002F0F8F910F0FF0FF8D101F061FBF5E769
:10249000B94A2000E4DD2000F4DD20009C4000204B
:1024A0006F6A0020676A00200EDE20002CDE20000C
:1024B00032DE200038DE2000805D002065DE200056
:1024C00054DC20006CDE20006CDC200073DE200079
:1024D00088DC2000FC5D00202465002030410020C5
:1024E000BC4000200CDD200008B500F019F8024BBC
:1024F00000221A7008BD00BF8E540020024A1378D3
:102500001843107000F014B88E540020034A13785A
:1025100023EA0000107000F00BB800BF8E540020BA
:10252000024A136843F038031360704700C40D403B
:10253000014B1860704700BFE0C00D40034B002204
:102540001A60034B1B68002BFBD1704780A00D4025
:1025500020A00D40014BFF221A60704780A00D4063
:10256000054B1860054A1168C806FBD41168490775
:10257000FCD51868C0B27047088000400C8000404D
:1025800070B508B949BB00E00AB9012070BD99B91E
:1025900001460B1A934201DB002070BD184C00234A
:1025A0002360184B1D68EE06FBD41D686D07FCD533
:1025B000236801F8013BECE700239342ECDACC5CA2
:1025C0000F4D2C600F4C2668F606FBD42668760764
:1025D000FCD52C68C4540133EFE7002AD5D0084657
:1025E000431A9342D8DA10F8013B054C2360054B9F
:1025F0001D68EE06FBD41D686D07FCD52368EFE768
:10260000088000400C80004008B51A4A136823F087
:102610001003136052F8203C23F0100342F8203CD2
:1026200052F81C3C23F0100342F81C3C52F8183CB2
:1026300023F0100342F8183C0F4B1A6810B142F017
:10264000100201E022F010021A600C4A0421136803
:10265000012043F0100313600A4600F02FFD012013
:1026600000F096FCBDE8084005480121042200F076
:10267000C7BC00BF20A40D400CA40D4010A40D4009
:10268000D1C6200008B51A4A136823F0010313606D
:1026900052F8203C23F0010342F8203C52F81C3C45
:1026A00023F0010342F81C3C52F8183C23F00103CC
:1026B00042F8183C0F4B1A6810B142F0010201E0D9
:1026C00022F001021A600C4A00211368012043F035
:1026D00001031360042200F0F1FC012000F058FC1B
:1026E000BDE8084005480121002200F089BC00BF78
:1026F00020A40D400CA40D4010A40D40D1C6200014
:1027000008B5074A04211368012043F01003136041
:102710000A4600F0D3FCBDE80840012000F038BCB8
:1027200010A40D40024A136823F010031360704791
:1027300010A40D4008B5074A01201368002143F09A
:1027400001031360042200F0B9FCBDE80840012039
:1027500000F01EBC10A40D40024A136823F00103D0
:102760001360704710A40D40014B1868704700BFFC
:1027700040A00D40014B1868704700BF04A00D40F9
:1027800010B51B4A02201368072123F08003136051
:1027900052F8203CFF2443F0800342F8203C0822FA
:1027A00000F08CFC134B05211C60012000F026FD7D
:1027B000002000F0A3FC104A136823F010031360FC
:1027C0000E4B1968A3F5607321F01001C3F8801354
:1027D000116821F001011160D3F8802322F0010279
:1027E000C3F880231C60064B1B68002BFBD010BD78
:1027F00020B40D4000B20D4020A40D4000A40D40B7
:1028000020A00D4070B50E4D0E4B2C460E4E0122F1
:102810001A600FCC0FC60FCC0FC60FCC0FC694E8B2
:10282000030086E803000FCD084E0FC60FCD0FC67C
:102830000FCD0FC694E8030086E8030070BD00BF0B
:10284000D4DC200024420020B85D0020805D002000
:10285000022870B502D1FFF7D5FF1DE001281BD17A
:102860000E4B0F4D0F4C00221A600FCC0FC50FCC32
:102870000FC50FCC0FC594E8030085E803000A4D8F
:10288000A4F130060FCE0FC50FCE0FC50FCE0FC56A
:1028900094E8030085E80300012070BD2442002075
:1028A000B85D00208CDB2000805D002038B50588F5
:1028B000044615B1622D0FD01CE00120FFF7C8FFC0
:1028C0000F4B2946186806F05DFE0E48802109F07E
:1028D000A8FF6223238011E00A4809F0BDFF68B118
:1028E000094809F039FFFFF78DFF054B00211868F3
:1028F00006F048FE00232380032038BD012038BDA8
:1029000010420020144200207ADE200038B50588ED
:10291000044615B1712D0DD018E00120FFF798FF86
:10292000284606F0F7FD0C48802109F07AFF712354
:1029300023800FE0084809F08FFF58B1074809F0DD
:102940000BFFFFF75FFF002006F0E4FD002323806C
:10295000032038BD012038BD00420020EADE2000FF
:10296000044B1B6823B1012B0CBF022000207047D1
:102970000120704724420020024B1868022818BF2B
:10298000012070476040002008B5044B002118600A
:10299000034801F0FDFF012008BD00BF10420020E8
:1029A0004040002008B50348002101F0F1FF01205C
:1029B00008BD00BF5040002020B1012805D1044BC4
:1029C00018787047034B186870470020704700BFA5
:1029D0008F54002020900D4010B5094A0020137834
:1029E00001331370074B197801F0A6FFBDE81040C2
:1029F000054B06481968064A002301F09BBD00BF3D
:102A00008F5400205E6A002050420020284200209F
:102A1000D9292000812810B50C462AD0B0F5807F36
:102A200039D0802839D101F005FF1D4B1D4A18709F
:102A30001368002023F00803136052F8203C0321A0
:102A400023F0080342F8203C52F81C3C23F0080312
:102A500042F81C3C52F8183C43F0080342F8183C7A
:102A6000042200F02BFB10480021032200F0C8FADA
:102A700013E00E4B1A6831B142F008021A600020D0
:102A800000F086FA05E022F008021A60084600F01D
:102A90008BFA204610BD064B1960012010BD00BF07
:102AA0005E6A002020940D40B52A200010940D404D
:102AB0005042002008B50F4809F0FFFEC0B10821C0
:102AC0000C4809F0E8FE0C4B196861B10B4B002271
:102AD0001A700B4B0B481B681BB90B4A01F02AFDFF
:102AE00001E001F069FDBDE80840084802F0CEB8F9
:102AF00008BD00BF48420020504200208F540020F3
:102B000020900D4028420020D9292000F4DA20002E
:102B1000F8B500F083F80F4B0024D3E900673A467C
:102B2000B04238BF7A1C15460443C3E90045DFF8BC
:102B300028E0DEE90001821B61EB070312196B41FB
:102B4000CEE9002301F0E0FD18B1BDE8F84001F046
:102B50006BBDF8BDF0410020F84100200F4B104A3A
:102B60001A6053F8042C42F0050243F8042C53F881
:102B7000042C42F0020243F8042C0A4A136843F082
:102B800001031360084B00221A60042243F80C2C46
:102B9000012243F8082C0F22DA62704714E000E0AB
:102BA00047E8010008200D400C000340034BD3E927
:102BB0000023100A40EA0360704700BFF041002084
:102BC000034BD3E90023D00B40EA4340704700BFDA
:102BD000F8410020054B18601C3B1A6842F00102C6
:102BE0001A601A68D207FCD4704700BF280003405F
:102BF00010B5064C236823F001032360FFF788FF1C
:102C0000236843F00103236010BD00BF10E000E023
:102C1000014B1868704700BF54420020074B084A18
:102C2000196804331B681268120442EA0323054A38
:102C30000B43106843EA0060704700BF40500D40EE
:102C400048500D404C500D4010B50446114B1B68C8
:102C5000DB07FBD509F04FFDFFF7E0FF231A062B3A
:102C6000D8BFC41D0C4B220E1A60C4F3074243F8B0
:102C7000042CC4F3072243F8082CE2B243F80C2CCE
:102C800009F035FD054B91201C60BDE8104000F0B7
:102C90007FB900BF50500D404C500D4054420020B1
:102CA00008B500F03BFF064B002291201A6000F0AF
:102CB00087F9912000F078F9BDE8084001F08CBE5A
:102CC000544200200023084A1068084A99580842D4
:102CD00005D01A44D268906910F0800003D02C33DC
:102CE000582BF0D10120704728200D4004DB200034
:102CF000164A38B52C2303FB00234FF6BF72DC685D
:102D00000546236C62649BB213F050020DD0A36998
:102D1000DB0609D40E4B53F825301BB12068C0B236
:102D20009847F4E72368F2E738BD13F4D06F0BD06F
:102D30004FF440732363FF236360E36AE262E3625C
:102D4000236B43F00103236338BD00BF04DB200085
:102D5000584200202DE9F04F012885B0064600F2C8
:102D6000BF802C244443604B1D1995F920A005F128
:102D70002007BAF1000F9946C0F2B28095F92230CF
:102D8000002BC0F2AD80594800F03AFF584A59F87C
:102D900004301168EC680B43136051686B6895F957
:102DA00021B00B4353609168AB6895F822800B43C8
:102DB00093600023C4F8C83F2B690BEBCA021A606A
:102DC00095F823305FFA88FC01939DF80430604643
:102DD00019462A7DCDF80CC0029300F079F9029BC8
:102DE000DDF80CC019466046082200F067F94FFA7A
:102DF00088F840494FEA08389DF9042058F8010046
:102E0000012303FA02F2024348F801204FEA0A3A8A
:102E10005AF8010003FA0BF202434AF8012050224B
:102E2000A263A26B95F8240042F4D062A26302224E
:102E300062634FF440722263AA696262EA69A26225
:102E40007022E26242B2002A0C4614DB95F925108A
:102E5000294D41EAC20129607979120315594FB20F
:102E6000BB402B431351002200F028F9234A13687A
:102E700043F4004313602C2303FB069393F826507E
:102E800020336FB2002F1CDB93F807A0EDB25FFA7E
:102E90008AF82846414601223F0300F019F94FFA0B
:102EA0008AFA3A59012303FA0AF313433B510822E1
:102EB0002846414600F002F9104A136843F4804363
:102EC00013602C2303FB0696F26896F82800136B18
:102ED00043F00103136305B0BDE8F04F00F058B8AC
:102EE00005B0BDE8F08F00BF04DB2000C52C20003A
:102EF00028200D4020940D4004410D4030D000406A
:102F000001289CBF014B43F8201070475842002015
:102F1000012808D8044B2C2202FB0030C3689A69B0
:102F20009206FCD41960704704DB2000014B00229C
:102F30001A60704700500D40014B08221A6070471C
:102F400000500D40024BA0221A6050221A607047B8
:102F500000500D40074A084B1A60084B80321A6037
:102F6000074B80321A60074B80321A60064B074AC3
:102F70001A60704700E100E06C42002060420020CF
:102F8000644200206842002008ED00E0002020009C
:102F9000044B41091A6800F01F000123834042F8E6
:102FA000213070476C420020044B41091A6800F040
:102FB0001F000123834042F8213070476042002007
:102FC000044B41091A6800F01F000123834042F8B6
:102FD0002130704768420020054A064B1A60064BB4
:102FE0001A68064B1340B3F1807FF8D1704700BFD9
:102FF0000101020100200D4004200D4000000101EC
:10300000024B02EBC10243F82200704770420020DD
:10301000F8B507460E46094D002405EB411547FA61
:1030200004F3DB07E1B204D555F824300BB1304688
:1030300098470134082CF2D1F8BD00BF704200203F
:103040002DE9F04780464FEA0837DFF8409007F156
:10305000804505F5592500F061FDD5F8186457F84D
:1030600009404FEAC80A24FA0AF446EA0400E4B226
:10307000C0B24146F6B204FA0AF4FFF7C9FFC5F838
:103080001C6447F80940BDE8F08700BF18970D4061
:1030900002480021802209F071BA00BF704200206E
:1030A000034A044B1A60044B803A1A60704700BF11
:1030B00080400D40F4420020F0420020034B01EB21
:1030C000C0011B6843F82120704700BFF442002074
:1030D000034B01EBC0011B6843F82120704700BF80
:1030E000F042002001289FBF034901230A68834062
:1030F0009CBF13430B60704718200D402DE9F04F23
:10310000012887B0044671D818235C43394D2E1925
:1031100096F811804FFA88FCBCF1000FCDF814C06E
:1031200064DBFFF7DFFFB37C2D5900275FFA83FBD9
:103130005FFA88F86F6040465946327AC5F8C87F12
:103140000493FFF7C5FFF47C327BE3B20093337D39
:10315000009801939DF8043064B219460293FFF77A
:10316000B7FF96F815A096F8169072684FFA8AF392
:103170004FFA89F101EBC300DDF814C0106003932E
:103180001D4A049B4FEA0C3C5CF802004FFA83FE98
:10319000012303FA0EFE40EA0E004CF8020024035D
:1031A0009DF9040054F802E003FA00F04EEA000032
:1031B000A05003988B400003845859462343835002
:1031C00040463A46FFF77AFF009802993A46FFF7E1
:1031D00075FF504649463A46FFF770FF337C2B6136
:1031E000C7232B606B6843F002036B6007B0BDE838
:1031F000F08F00BF5CDB200020940D4038B50B4AF7
:103200000403A35801258D4023EA0503A35000229F
:10321000FFF754FF064AA3582B43A35004F1804400
:1032200004F55924FF2344F8253038BD20940D407F
:1032300000940D400E2870B50BD1164B164E1C682D
:1032400044F002051D60356825F03F0343F001039B
:103250003360124E336823F0FF031A4311430143D6
:1032600031600F4B1B681B06FBD50E4B0E4A1B68CB
:1032700012680E2803F0FC0343EA022308BF064A43
:103280009BB204BF1560034A9BB208BF146018B21A
:1032900070BD00BF34000144F486084008700D4042
:1032A00000700D400C700D4010700D40024B1868FE
:1032B000B0FA80F04009704700B7084010B58F2081
:1032C000064CFFF77DFE8F20FFF76EFE206818B1D9
:1032D00001F076FB0023236010BD00BFF842002000
:1032E000064A136843F002031360536843F0020375
:1032F0005360936843F002039360704748200D4089
:1033000007B50C4800F07CFCFFF7EAFF0A4B1A688F
:1033100042F002021A6000220192019A0F2A02DC96
:10332000019A0132F8E71A6822F002021A6003B02B
:103330005DF804FBAD32200054200D40064A1368AE
:1033400023F002031360536823F002035360936871
:1033500023F002039360704748200D40084B93F917
:103360000020002A09DB074AED2111601160E321EA
:1033700011601A7862F07F021A700120704700BF56
:103380009054002038880840094B1B689B07FBD4E9
:10339000084BED221A601A60074A12680AB1EF2240
:1033A0001A60064A0120137803F07F0313707047F8
:1033B0004C860840388808402C86084090540020ED
:1033C00038B5A0F10B04E3B20F2B054613D80B4B15
:1033D0001B6813F03F0302D0FFF7D6FF012304EB75
:1033E0008404074A0B3414600BB1FFF7B7FF054B99
:1033F000E8B21D7000E0FF2040B238BD48860840AA
:103400003C860840E641002010B50B4B1B6899062E
:1034100003D1FFF7A3FF012300E00023074A12684E
:10342000D207FBD5064A1468C4F300140BB1FFF7AA
:10343000ABFF204610BD00BF4886084064860840A8
:103440004C860840044B186800F02200A0F12003CD
:1034500058425841704700BF4C860840024B1868DC
:1034600000F04000704700BF4C86084038B50C465D
:1034700000296ED010286ED8DFE800F0090F1A1C62
:10348000236D3344496D6D6D6D6062646900334B2B
:103490001B68003318BF012356E0314B05221B681F
:1034A00003F07F030B3B93FBF2F30B33DBB24BE0F8
:1034B0002C4B00E02C4B1A68043B1B6843EA0223A8
:1034C00042E02A4B002008601A68243302F001020F
:1034D0000A601B6813F0200337D042F002020A6032
:1034E00038BD234B1A680023D2B2224901EBC30036
:1034F0000079904202D851F8333025E001330E2B89
:10350000F3D11FE01C4B1B685BB2493B1CE01B4B1B
:103510001B68990603D1FFF721FF012300E0002378
:10352000174A1268D207FBD5164A1568493DEDB215
:103530000BB1FFF729FF6DB2256006E00B2303E016
:103540001A2301E06FF017032360002038BD072322
:10355000FAE7022038BD012038BD00BF2C860840A4
:103560003C860840CC850840D48508400086084049
:1035700040860840C4DB2000588608404886084042
:10358000648608406086084038B505460C46134BF3
:103590001B689B07FBD4124B93F90030002B01DB17
:1035A000FFF7DCFE0F4BEE221A60691E1A60A21CA8
:1035B00043F8102C2144022000F03EFA013C0A4955
:1035C00024012143022000F049FA022000F050FAC1
:1035D000022000F065FA002038BD00BF4C8608408C
:1035E000905400203888084002C001C0F8B51F4B35
:1035F00093F90030002B0DDBFFF710FB0446FFF7BB
:10360000ADFEFFF70BFB6FF009031B1BC342F8D4A1
:10361000012600E00026FFF7F7FE18B3144C2368DC
:1036200099061FD4134DE9232B60042723689A07BA
:1036300007D4013F17F0FF0703D00620FFF7CAFAAF
:10364000F4E723689B0704D4EE232B6001242B604E
:1036500004E0206810F00200FBD1044626B1FFF719
:1036600093FE01E00220F8BD2046F8BD90540020F2
:103670004C86084038880840044B1A6810B142F064
:10368000010201E022F001021A6070470086084042
:1036900038B50C46072855D8DFE800F0040F1B1F8B
:1036A00026543B4F012903D1FFF758FE002038BDB7
:1036B000002949D1FFF768FEF8E7A1F10B030F2BB2
:1036C00042D8C8B2FFF77CFE431C0CBF0320002089
:1036D00038BD8CB2E2B21D4B02E08CB21C4BE2B2A0
:1036E000240A1A605C60E1E731F003052CD101F097
:1036F0000100FFF7C1FF174B14F002001A681BBF4F
:10370000284642F0200222F020021A6008BF1A6008
:1037100038BD01F118031F2B16D80D230E49DA000E
:1037200051F83300844204DC8B181A790B4B1A6071
:10373000BCE713F1FF33F1D2B8E7CCB2084B493400
:103740001C60B3E7012038BD022038BDC8850840A1
:10375000D085084024860840C4DB2000408608400D
:10376000588608400B280DD1082A0DD161B1074BAE
:10377000013953F8042D01F8012F054A9342F8D17D
:10378000002070470120704702207047C88508401C
:10379000A88508400B280DD1082A0DD161B1074B2F
:1037A000083111F8012D43F8042F054A9342F8D14E
:1037B000002070470120704702207047A485084010
:1037C000C485084070B52B4E336813F0400308D011
:1037D000294D2B68DCB21B0605D5284BED221A605B
:1037E0001A60002070BD042CF7D9023C8C42F4DC36
:1037F000E4B2032C1BD001190139032000F024F995
:10380000631E1F491B010320194300F027F9032001
:1038100000F02EF9032000F043F9032000F04CF9EA
:103820000028FAD129682D682806D6D506E02B682D
:1038300003702B6843702B688370F3E7493949B2F2
:1038400089B2042007F074F9032005F07F0107F026
:103850006FF933685A060BD5064B1B681B0603D558
:10386000084801F0ADF803E0044BED221A601A603D
:10387000204670BD4C86084028880840388808409B
:1038800002C0010C74400020F8B52B4E357815F0BD
:1038900001054ED1294B01241C605C609C60A3F59E
:1038A0009323A3F51473F8221A600922C3F8902118
:1038B000152270331A6003F59B230B2203F59E73C8
:1038C0001A60A3F59B23A3F5F07340221A601A68CF
:1038D0007F2742F020021A60D52243F81C5CDF6289
:1038E000DA61174B1878FFF76BFD164A8D201368C5
:1038F00043F004031360FFF74BFB134B8E201F6054
:10390000FFF746FB022000F0BFF81049022000F04C
:103910009BF8032000F0B8F803200C4900F08CF865
:103920000B48294601F034F833782046234333709E
:10393000F8BD0020F8BD00BF90540020A8200D4025
:10394000E64100208C86084094860840288808407C
:103950007440002038B503880446E3B140F2B93220
:10396000934203D000230380032038BD822915D160
:1039700007F084F807F018F88021FFF723FF0028EC
:1039800005DD80B206F0F4FF0C4B1B6998470C4B29
:103990001A78520604D440F2B9332380012038BD8E
:1039A00000221A70074B1D68FFF7EEFCFFF76CFF53
:1039B000AB06F0D0FFF7D2FCEDE700BF88DC2000BB
:1039C000905400204886084008B5034800F0F8FFEE
:1039D000024B00221A6008BD744000203488084061
:1039E000064B07481A68042A1FBF06490A7842F0A6
:1039F00040020A7000221A6000F0E2BF2C880840E2
:103A0000744000209054002010B5094C002120463D
:103A1000402208F0B3FD074B01221A602E205C60A3
:103A2000FFF7B6FABDE810402F20FFF7B1BA00BF8C
:103A30000040002004F00F4003289EBF014B00010E
:103A4000195070470040002003289EBF024B03EB33
:103A500000104160704700BF0040002003289EBF57
:103A6000024B03EB00108160704700BF0040002054
:103A700003289FBF034901230A6883409CBF134367
:103A80000B60704728F00F4003289FBF03490123B4
:103A90000A6883409CBF13430B60704720F00F40BF
:103AA00003289FBF034901230A6883409CBF134337
:103AB0000B60704714F00F4003289FBF044B03EBCB
:103AC0000010806800F0070088BF0020704700BF2A
:103AD00000400020024B4FF0FF321A60704700BFD9
:103AE00004F50F40014B01221A6070474CF00F4063
:103AF000094B1A6812F4801F1A46F9D1043B196861
:103B000021F4803119601168C903FCD41A6842F4A9
:103B100000321A60704700BF04200D4010B50A4BF8
:103B20001A681C4612F0030F0CD0084B1A6851019A
:103B3000FBD41A685201FCD5FFF75AF8FFF7D8FFFB
:103B40000023236010BD00BF58200D4004200D400D
:103B500038B5254B1C6814F03F0413D1234B53F8A0
:103B6000243023B1984768B10134052CF6D1204D9B
:103B70002B783BB1FFF74CF80446FFF74FF8201ABB
:103B8000092801D830BF38BD002CFBD0194B1A686A
:103B900022F400321A60184A1168C902FBD419686D
:103BA00041F4803119601368DB03FCD5FFF736F868
:103BB000201A092803D8BDE83840FFF799BF6328C9
:103BC0000E4C02D92B78022B00D00123236000F089
:103BD000A9FE20B1FFF78CFF0023236038BDFFF75B
:103BE00017F80028CED1F5E748860840FC420020AF
:103BF0009154002000200D4004200D4058200D401D
:103C00000023064A52F82310814206D011B942F827
:103C1000230070470133052BF3D17047FC4200208D
:103C2000054B00221A60054A136843F00403136031
:103C3000034B02221A70704758200D4010ED00E02F
:103C40009154002010B59020064CFFF7B9F9902050
:103C5000FFF7AAF9206818B100F0B2FE0023236034
:103C600010BD00BF1043002030B5184B1A78431E1A
:103C70003AB9174A1278122A03D1164A12784B2AF7
:103C800003D001F52011273117E04A0802F128146A
:103C9000B4F1281F04D014F8015D03F8015FF7E7C1
:103CA00001F5201127310023934205DA11F801595B
:103CB0008418E5540133F7E730BD074A914204D038
:103CC00011F8012903F8012FF7E730BD2B00280078
:103CD0002A00280029002800270028000FB407B573
:103CE00004AA52F8041B0448019200F039F803B00A
:103CF0005DF804EB04B07047844000200EB43FB57B
:103D0000094B07AA52F8041B0190049304A801ABC5
:103D10000392059300F024F8019B00221A7006B06C
:103D20005DF804EB03B07047F7C7200070B5054697
:103D30000C46102C07D92B68686808491022984750
:103D400050B9103CF5E734B12B6868682246BDE8ED
:103D5000704002491847204670BD00BFEBDF2000CD
:103D60002DE9F04F80468FB0069107920026069B02
:103D70001B78002B00F05F83069B1C4613F8012B79
:103D80001AB9069B9C4203D10FE0252AF5D1F8E72A
:103D9000069BD8F80400E51A0699D8F800302A46A0
:103DA0009847002840F02A832E442378002B00F007
:103DB00042836378611C002B00F03D8300240A4697
:103DC00011F8013B2B2B11D006D8202B11D0232B1F
:103DD00012D144F00804F2E72D2B04D0302B0BD184
:103DE00044F01004EBE744F00104E8E744F0060473
:103DF000E5E744F00204E2E7A3F1310108290DD818
:103E0000134600251A4613F8011BA1F130000928BA
:103E100011D80A2202FB0515303DF3E72A2B09D100
:103E2000079B01321D68191D002D0791B8BF44F092
:103E3000010400E0002513782E2B1CD15178531C6F
:103E4000A1F1300009280ED8194600270A780B4640
:103E5000A2F13000092801F101010FD80A2303FB68
:103E60000727303FF2E72A2906D1931C079A111D34
:103E70000791176802E013464FF0FF371A786C2A53
:103E800009D15A786C2A02D144F080040AE0013347
:103E900044F060040BE0682A09D15A78682A03D1FB
:103EA00044F02004023302E0013344F040041A7865
:103EB000642A3CD01FD8462A48D00DD8252A5AD08B
:103EC00003D8002A00F0B78257E0412A4AD0452A99
:103ED00053D144F4424450E0582A31D004D8472A00
:103EE0004BD144F4A13448E0612A38D0632A44D14C
:103EF00044F4A06441E06E2A3AD007D8662A22D062
:103F000027D3672A28D0692A11D036E0732A2CD00B
:103F100006D86F2A11D0702A2FD144F440742CE0B7
:103F2000752A07D0782A28D144F4C85425E044F4EF
:103F3000245422E044F410641FE044F488541CE04C
:103F400044F4B24419E044F4007416E044F48444A8
:103F500013E044F4024410E044F481340DE044F4EE
:103F6000C1340AE044F4E13407E044F4806404E03E
:103F700044F4E06401E044F4C0640133069304F4C3
:103F8000E063B3F5806F00F0AA8116D8B3F5807FA7
:103F90002BD0B3F5407F7FF4EAAE079BA04914F421
:103FA000804F03F104029F4818BF08460DF133010A
:103FB00007920F461A680023C5E1B3F5C06F08D019
:103FC000B3F5E06F00F03182B3F5A06F7FF4CFAEB0
:103FD00000E2D8F80030D8F804009349012298474D
:103FE000002840F00B820136C1E6002FACBF24F060
:103FF0001004012714F40053039304F0E00337D0B6
:10400000402B17D008D8DBB1202B2AD1079B1A1DD3
:10401000079293F9002017E0602B11D0802B20D15C
:10402000079B073323F0070303F108020792D3E944
:1040300000230AE0079B1A1D0792B3F9002003E052
:10404000079B1A1D07921A68D317002A73F1000103
:1040500009DA524263EB4303CDE900234FF0010933
:1040600033E000220023CDE900234FF000092CE0CB
:10407000402B16D007D8CBB1202B20D1079B1A1D7F
:1040800007921A78EEE7602B10D0802B17D1079B90
:10409000073323F0070303F108020792D3E9002353
:1040A000E1E7079B1A1D07921A88DBE7079B0021AF
:1040B0001A1D07921B681846CDE90001D5E70022BA
:1040C0000023CDE900234FF0000904F4C053B3F5F9
:1040D000805F0CD0B3F5C05F33D0B3F5006F4FD124
:1040E000DDE900230DF1360ACDE9042304E0DDE922
:1040F00000230DF1360A15E0DDE9042313433AD01D
:10410000DDE904010A22002307F054FEDDE9040181
:1041100030320AF8012D00230A2207F04BFECDE9C8
:104120000401E9E752EA030125D002F0070130312A
:104130000AF8011DD10841EA4371D8080A4603462E
:10414000F0E7384B14F4804F0DF1360A344908BFBC
:104150001946DDE9002352EA03000CD002F00F00FB
:10416000085C4FEA131E0AF8010D100940EA0370BB
:1041700002467346EFE70DF1360BCAEB0B0B03E07B
:104180000DF1360A4FF0000B41F6080241F2080328
:104190005F4502EA04028CBFCBEB070700279A4277
:1041A00002D1002F08BF012741F608018A4207EB20
:1041B0000B030DD1DDE9000150EA010208D01B49D3
:1041C00014F4804F1A4A4FF0020C18BF0A4602E05E
:1041D0004FF0000C62460399A1B1B9F1000F0AD16A
:1041E00004F0060102290AD00629124904BF4FF043
:1041F000010C0A4606E04FF0010C0F4A02E00F4A9C
:104200004FF0010C63449D428CBFED1A002514F061
:10421000010922D1E30613D52F444D461DE000BF0E
:10422000B6DF2000C7DF2000E9DF2000DBDF200051
:10423000D8DF2000E0DF2000DEDF20005DE320008B
:1042400040462946CDF80CC00092FFF76FFD009A5A
:10425000DDF80CC0002840F0D180BCF1000F0DD07B
:104260001146D8F800306246D8F80400CDF800C0F6
:104270009847DDF800C0002840F0C0803C465E440E
:10428000102CD8F800300DD9D8F804006C49102251
:10429000CDF800C09847002840F0B080103CDDF811
:1042A00000C0EDE75CB1D8F8040065492246CDF8BE
:1042B00000C09847DDF800C0002840F09F80D8F883
:1042C0000030D8F8040051465A4666449847002802
:1042D00040F094803E44B9F1000F79D073E0079B21
:1042E000D3F800A01A1D0792BAF1000F09D0534667
:1042F000994699F800200133002AF9D1CAEB09093F
:1043000003E0DFF840A14FF00609002F02DBB945BA
:1043100028BFB9464D458CBFC9EB0505002514F0F3
:10432000010405D140462946FFF700FD002865D16C
:10433000D8F80030D8F8040051464A46984700287B
:104340005CD14E443EE052EA030E0ED002F00F0E56
:1043500010F80EE04FEA131C01F801ED4FEA121EAF
:104360004EEA037E72466346EDE70B467F1A01BFB5
:104370003022012701F1FF3301F8012C03377822A5
:10438000BD4203F8012C4FF0300203F8022C88BF25
:10439000ED1B4FF0230298BF002514F00104A3F198
:1043A000030903F8032C04D140462946FFF7BEFC5D
:1043B00020BBD8F80030D8F8040049463A46984760
:1043C000E0B93E4424B140462946FFF7AFFCA8B906
:1043D0002E44CCE4079B012D03F104021B688CBF23
:1043E00005F1FF35002514F0010407928DF8203007
:1043F00008D140462946FFF799FC10B14FF0FF3035
:104400001AE02E44D8F80030D8F8040008A9012298
:1044100098470028F2D16F1C2CB140462946FFF77F
:1044200085FC0028EAD13E44A1E4079B1A1D1B68C5
:1044300007921E609BE430460FB0BDE8F08F00BFCE
:10444000A6DF2000E2DF2000F8B503880646154607
:104450002BB14A2B15D0002303800320F8BD174849
:1044600008F03CFA04462CB1201DA16808F0D9F9E7
:104470002468F8E7124B01221A704A233380012086
:10448000F8BD8829FBD10D4808F028FA0446002C15
:10449000F3D0231D9D420ED10848214608F028FA8A
:1044A000084B62691F681A60A2691D460AB1E0697B
:1044B00090472F60E1E72468E9E700BF144300203C
:1044C000925400202843002010B5064B00240648D3
:1044D0001C7008F000FA2146BDE81040034800F0C7
:1044E00057BA00BF92540020144300208C40002093
:1044F00070B50446E3610B4B049D1B786561A261B6
:1045000043B1094D094B2E68201D2B6008F089F935
:104510002E6000E0A1602146BDE87040044808F02C
:10452000FBB900BF92540020284300208C4000209B
:104530001443002013B5034C24680094FFF7D8FF00
:1045400002B010BD2843002070B5094B05461B780A
:104550003BB1084C084B26680430236008F06AF928
:1045600026602946BDE87040044808F0D5B900BF70
:1045700092540020284300208C4000201443002047
:1045800070B5094B05461B783BB1084C084B2668B3
:104590000430236008F057F926602946BDE87040D2
:1045A000044808F0B9B900BF925400202843002005
:1045B0008C4000201443002010B5084B04461B78A3
:1045C0001BB1043000F0A8F801E0C360036121468C
:1045D000BDE81040024808F08BB900BF925400209B
:1045E0001443002010B50E4C236813B90D4A136014
:1045F00010BDFEF7DBFA216891E80C001A44131A8B
:104600008A6842B192E812002144091A8B4228BFFD
:104610000B469268F5E71844024B186010BD00BFC6
:10462000184300201C430020014800F0C9B900BF16
:104630009C400020F8B5038805462BB1592B09D0C2
:10464000002303800320F8BD1E4A136059232B80EA
:104650000120F8BD872920D08229F7D1194F0026E3
:104660003C68002CF2D0204608F027F990B1E068B1
:104670008821224600F060F950B9E060A3680EB1CD
:10468000B36000E03B600023A360FFF7ABFFE5E70A
:10469000FFF7CAFF2646A468E3E70A490B680BB98F
:1046A0000B60D3E7D868904201D19B68F7E70B60B5
:1046B00099680029CAD0C86890420ABF89680B4629
:1046C0009960F5E71843002010B50446FFF7ACFFEA
:1046D000E3680B4A4BB113683BB1A34203D1094ACB
:1046E0001268DA6007E09B68F6E7064B1B68E36038
:1046F00013681460A360BDE81040FFF773BF00BFEC
:104700001843002028430020024B1868003018BFCF
:10471000012070471843002010B50B4A0446136867
:10472000984206D18368136008E09A68A24203D0D9
:104730001346002BF9D103E0A2689A60FFF752FFFD
:104740000023A360E36010BD1843002038B58368E0
:1047500004460D469BB10A4804600220A07304F190
:104760000C0098470238012801D9832D05D1204635
:104770002146BDE8384000F005B80123A37338BDD9
:10478000284300202DE9F8431C4A04461568894651
:104790002B4690461A4E3768A34204D00BB11B68D3
:1047A000FAE7BDE8F88334B3A37BABB10023A3736E
:1047B00045B1AC4204D028468721224608F054F87F
:1047C0002D68F5E7A3683BB14C4505D0346004F192
:1047D0000C0083212A469847D8F800309C4203D128
:1047E0002268064B05E0134623B11A68A242FAD1AB
:1047F00022681A603760BDE8F88300BF2C430020B0
:104800002843002010B5094B00221A70084B1C6881
:104810005CB1E37B3BB101230022A373E27320462A
:104820008221FFF793FF2468F2E710BD9654002021
:104830002C430020024B1878421C1A70704700BFAE
:1048400097540020064B8A221A70064A00231370E0
:10485000054A1370054A1360054A1360704700BF8C
:104860009754002093540020955400202C4300209E
:10487000284300202DE9F041214E33780BB1FFF79A
:10488000C1FF204D2C78002C34D0DFF88CE00C22B6
:104890009EF800301C495A4388181C4F895CDFF889
:1048A0007C804268DFF878C08068013303F01F0322
:1048B000013C3970C8F80020CCF800008EF80030B8
:1048C0002C7088B9124C134B1B68236023688BB182
:1048D00033780BB1FFF796FF20683978D8F80020BD
:1048E00007F0C2FF2368EFE7812904BF0123837328
:1048F00007F0BAFF337828781844BDE8F08100BF8C
:1049000096540020955400203443002098540020F1
:10491000304300202C4300209354002020430020EB
:1049200024430020024A034B10781B781844704738
:104930009554002096540020F0B50C4E3478202C6D
:1049400011D00B4B0B4D1B780B4F234403F01F036F
:104950002B700C256B430134FD18A860F9546A6074
:1049600034700020F0BD0120F0BD00BF9554002040
:1049700093540020945400203443002038B5034C55
:10498000256807F071FF256038BD00BF284300206F
:1049900010B50A4609490C68234683420DD00BB175
:1049A0001B68FAE748B104600860012181738381C4
:1049B0008121BDE81040FFF7E1BF10BD2C4300206E
:1049C00038B1837B013B012B9FBF024A0123C37394
:1049D000137070479654002010B5084C206858B1E9
:1049E00000232360816843689847236823B1BDE8AA
:1049F00010401868FEF728B910BD00BFB44400206D
:104A000010B50446FEF7DCF894E80C001344C01A15
:104A1000024B98428CBF0020012010BDFEFFFF7F9B
:104A200038B505880446672D09D0792D2ED0002D84
:104A300032D1FFF7FFFE1B4B18701B4B1D601B484C
:104A400007F0FDFF431C01D167231DE00A28164B28
:104A500007D01A687E2AF2DC511C1960144B985456
:104A6000EDE7196800254A1C1A60114A0D4B555490
:104A700028461978FFF760FF0E4B852118682A46F3
:104A8000FFF75AFF20B97923238009E0852907D150
:104A9000054B00221A60D2E700230380032038BDB3
:104AA000012038BD636A0020C0440020B8440020C3
:104AB00019550020284300200D2810B5014615D0B7
:104AC0000B4C23782BB90B4807F0A5FF48B90123FD
:104AD00006E00A2805D1074807F09DFF08B100232A
:104AE00023700548FFF76CFF012010BD002010BDAA
:104AF00099550020B8440020AC40002008B5054876
:104B00000549802207F080FFBDE8084003480021E6
:104B1000FFF73EBFB844002099540020AC4000206D
:104B2000054A136843F004031360044B1B68906943
:104B300043EA002080B2704700700D4014700D40B1
:104B4000174A136823F00C031360164B01221A60F6
:104B50001A68012AFCD1144B08221A60E322C3F818
:104B6000142203F505731946104B1B68DB07FBD5B0
:104B7000102000230E4A0138126802F0010243EAB5
:104B800002034FEA43039BB2F4D1002BF0D0094A51
:104B9000180A03F0FE0310601360EF230B607047E8
:104BA00000700D40A8200D4024860840648608400F
:104BB0009C86084014700D4070B505880446772D1A
:104BC00030D07E2D3FD0002D4DD1FFF733FE294B45
:104BD0001870294B1D601D462B68284A264E52F836
:104BE00023204AB126480021C15493688020984769
:104BF000336801333360EFE7224A1370772320E0F4
:104C00001F4AD256002A12DB1B4A13680133136075
:104C1000194B1C4A1B6812789342F1DB1A4B1B6834
:104C2000002BEBD0184A00231360134AEFE7114A18
:104C300000201178114A52F82320FFF77DFE30B989
:104C40007E23238013E00B4B1B788B420FD10A4B42
:104C50000B491A688B5C03F07F038B540A4A136874
:104C600001331360D0E700230380032070BD0120CF
:104C700070BD00BF646A0020C8440020644000206A
:104C80005F6A00209A550020C4440020094B1A781E
:104C90000023934204DA084951F82310814207D1D6
:104CA00006490748CA5C62F07F02CA54FFF788BE13
:104CB0000133EEE79A550020644000205F6A00202F
:104CC000BC4000200C4AB82303FB0022002330B56F
:104CD00053821A46094CE1188D782DB11C5D84422F
:104CE00002BF00248C70013240F24C5171338B4270
:104CF000F0D1104630BD00BFE8440020A65500208A
:104D000008B5064803F014F9054B01221A70FD217D
:104D100000225A709970DA7008BD00BF694F2000F8
:104D20009C55002010B513780446087A83F00203DE
:104D300098421DD1487A5378984219D1887A93784D
:104D4000984215D1C87AD378984211D1087B13794B
:104D500098420DD1487B5379984209D1887B937949
:104D6000984205D1C87BD379984201D103201BE03A
:104D70000B890F4A6BB94B89B3F57F4F09D18B89EA
:104D8000FE2B06D11368C989022023F8021B136089
:104D90000AE0136851F8080F083343F8080C486814
:104DA00043F8040C13600120A040C0B210BD00BF46
:104DB000D444002010B50F4C0220A17905F0B8FEB4
:104DC000A379112B01D0062B05D1238D618D99423A
:104DD000A8BF194608E03A2B05BF94F8281094F8AC
:104DE0002930002143EA01210120BDE8104005F0EF
:104DF0009FBE00BF045E002010B5084C014623781A
:104E0000012B08D1A01C082207F0ACFA00280CBF27
:104E10002046002010BD002010BD00BF9C55002082
:104E200008B50146102005F091FE044B04489B682C
:104E300000219847BDE80840FEF784B8A8DC2000B0
:104E4000454E200010B508460C46114602F008FCFD
:104E5000044B1B6813B19B6820469847024B1C60AB
:104E600010BD00BFE4440020E0440020F8B5054632
:104E70000023114A712404FB0324A278B2B96170A3
:104E800005F080FD26460D4F0D4A3B7806F8035B82
:104E9000C01A1568A0701D4405F074FD3A782946C3
:104EA000821A304607F090FAA078F8BD01330C2B37
:104EB000DFD14FF0FF30F8BDA6550020F25A002098
:104EC000D84400202DE9F8434FEA1219B9F10F0F29
:104ED00080461D4602F00F040BD00F2C05D1B9F10E
:104EE000000F0AD11024274619E0B9F1000F09D0AC
:104EF00004E00F2C4FF0100900D1102440464A4620
:104F000007F062FA09EB04020F2A274606DC08EBD9
:104F100009000021C2F1100207F030FBBCB1114DB5
:104F2000C7F110002E6840443146224607F04CFA83
:104F3000022C08D1B9F10A0F9FBFFF2388F80B306C
:104F4000FE2388F80C3034442C60BDE8F883B9F1B6
:104F5000000F05D040462946BDE8F84307F0D6BD0E
:104F6000BDE8F883D44400202DE9F04F8E4E8F4DDC
:104F7000002387B033702B70044605F07FFD05F0E9
:104F800013FD8B4A8B4B126818608DE860009946C0
:104F90000AB1FFF70FFF04A80CB9874900E02146CA
:104FA00008F0C3FC854B864E1A8803933E2A40F2D4
:104FB0000182D9F800B0834D0BF102032B60009BF6
:104FC00006F1180093F80080002308F102080BF89E
:104FD0000830FFF711FF20B906F10800FFF70CFFBA
:104FE00020B10BF103032B60802400E004467278AB
:104FF0003178130943EA0113DBB2980840EA8313BE
:10500000DBB212F00F0FDEB26E4F01F00F010CD1C8
:105010006B48408848B911B912F0F00F1FD03B68B7
:1050200003F8016B3B6070261AE079B912F0F00FBB
:105030000CD1296823F03F031A43634B0A701B8885
:10504000033121F8023C6826296009E05C4A2B689C
:105050001068186003F8046B2B60602600E0782667
:10506000574B9A790293112A08BF46F0040673073A
:105070005EBF3B6803F8012B3B60029BDB79402B52
:1050800006D0FF2B07D0012B08D146F0010609E01E
:1050900046F0020606E046F0030603E03A6802F82E
:1050A000013B3A60029A464B128982B95A8972B919
:1050B0009A8962B9DA8952B91A8A42B95A8A32B9D6
:1050C0009A8A22B9DB8A13B944F0400013E03F48C2
:1050D000FFF792FE3E4B186078B142781BF808301B
:1050E000042043EA02130BF808303849394AFFF725
:1050F00019FE60F03F00C4B227E0029B30491A89D4
:1051000048F2FE039A420CD14B8B53B98B8B43B9B7
:10511000CB8B33B9042008312E4AFFF703FE20431E
:10512000E9E73A68DFF8A4C096460CF1100A634636
:1051300003CB5345CEF80000CEF804109C460EF188
:10514000080EF4D11F4B10321A60DFF874A09AF8E1
:105150001830FF2B40F08A809AF8192044F0080E8E
:10516000022A5FFA8EFE37D1BAF81A30A3BBBAF81A
:105170001C308BBBBAF81E3073BBBAF820305BBB57
:10518000BAF8223043BBBAF824302BBB9AF8263049
:1051900013BB3B689AF8272044F00B0003F8012B5F
:1051A000C4B23B609FE000BF9B550020F25A002034
:1051B000E4440020D8440020CFEB2000F05D002024
:1051C000045E0020D4440020065E00200C5E002017
:1051D000CC440020FC5D00209B4B588B194688BBBB
:1051E000988B78BBD88BA8B9188C98B9588C88B98B
:1051F00093F8240070B9296844F00A00C4B2084644
:1052000000F8012B33F8252F043121F8032C9B786B
:10521000837015E0C98B8C4BA1B9198C91B993F8A7
:10522000221079B9296844F00900C4B2084600F890
:10523000012B53F8232F063141F8052C1B790371FC
:10524000296050E0814ADFF818C214680CF1100898
:105250002746634603CB4345386079609C4607F197
:105260000807F6D11034146074463CE00AF11800C7
:10527000FFF7C2FD764B186050B143781BF8081059
:1052800044F004040B43E4B20BF8083000200EE0B5
:1052900048F2FE03BAF818209A4210D1BAF81A3030
:1052A0006BB9BAF81C3053B9BAF81E303BB90AF1E1
:1052B000180104AAFFF736FD2043C4B213E0634A85
:1052C000DFF89CC117680CF11008BE46634603CB9B
:1052D0004345CEF80000CEF804109C460EF1080EAF
:1052E000F4D110371760019A5749282313708B792E
:1052F000112B53D14FF2B0030A8D52BA92B222F061
:105300000F0080B2984217D14B8D5BBA23F00F0388
:105310001B041B0C83420FD12868F32303704B8DB1
:1053200002301A0A0B8D1B0A02EB031303F5AA6362
:1053300000F8013C286028E0029B43495B8D5BBA82
:1053400003F47F43B3F5704F09D12B68F1221A7033
:105350000A8DA3F801204A8D120ADA700CE002F4DB
:105360007F42B2F5704F2B6808D1F2221A700A8D75
:10537000120A5A704A8D5A80043305E0F0221A70DE
:10538000886A053343F8040C2B60324B1A882B686B
:1053900023F8022B019A2B6030231370009BD9F85D
:1053A00000201B78D65413445C70284B1B689B1A52
:1053B000009A1AE0D9F8002041231370009B06F1EF
:1053C00028051C78631CDBB21344324603CAAA4288
:1053D00018605960164603F10803F6D1009B293482
:1053E0001C70019B019A1B782833102013700DEB61
:1053F000000105F0ABFB184BDFF868801B6898478D
:1054000030EA200028BF1520039BC0F17D051C88D1
:10541000019BDFF854A01E78009BA21B93F800B0FC
:105420000E4FCBEB05039A4240F3CD80C0F17803D9
:10543000019305F0B5FB019B94FBF3F40134A0420A
:1054400014DC0020D1E000BF045E0020D444002022
:10545000CC440020325E002060DC2000F25A0020A4
:105460001C5E0020F05D00209B550020D9F800B0A4
:105470005F4B3C7800221A60594622460BF104002B
:10548000039307F017F8B8F800205A496FEA8242F0
:105490006FEA9242C2F307228BF80020B8F800208E
:1054A00004348BF801200A88E4B2501C0880110AE9
:1054B000DFF850C18BF802102D1B9AF8001025F070
:1054C00007054D4E61448BF803200BEB04002A4680
:1054D000CDF808C03C70356006F076FF281980B220
:1054E00005F046FA05F062FB039B04461D460028C2
:1054F000A7D00DF1100B5846FFF792FC204605F09F
:105500008DFB204605F074FB2B68012B99D0043BE2
:10551000012B96D99AF800A0336853441FFA83FAF6
:1055200005233B70354B1A68B8F800306FEAC34367
:105530006FEAD343C3F307231370B8F800305370F6
:10554000019B23F0070737602D4B1B889A454BD2F0
:10555000D9F800204FEADA0111713268CAEB03036F
:105560009342B8BF244AD9F80000B8BF1360009B2B
:10557000376893F80080029B3A4603EB0A014044E7
:1055800006F022FF08EB070080B205F0F1F905F004
:105590000DFB074600283FF454AF5846FFF740FC88
:1055A000384605F03BFB384605F022FB124B1B68E2
:1055B0009A442B681FFA8AFA012B3FF442AF043B4E
:1055C000012BC1D83DE7D9F800000E4958443144B9
:1055D00006F0FAFEB8F800005844801B80B205F0CF
:1055E000C7F904A8FFF71CFC012007B0BDE8F08F45
:1055F000E0440020284D0020DC440020D844002056
:10560000F05D0020045E00202DE9F0470746884643
:105610001646002A47D0434C0025A146238ABB42A8
:1056200015D1638A9BB10F2005F09CFA01462046F4
:1056300008F080F958B1ECB220463146FFF716FC6D
:10564000002827DA0027DFF8E0A0B8460DE0B834DC
:10565000002D5DD10125E1E7A8450BD10AF1B80A7B
:10566000B8F1000F10D14FF001083AF8063C002BBA
:10567000F4D0F1E7504607F020F90028EED040467C
:10568000FFF720FB0744E9E7002F41DD20463146C4
:10569000FFF7ECFB00283BDDB82303FB0595AB8A45
:1056A0001844A8823AE0204DFF2435F8063C4FFA12
:1056B00084F97BB3284607F000F910B13046FFF7B4
:1056C00001FBB9F1FF3F03D135F8063C03B9F4B251
:1056D000012E05F1B80501D00126E6E765B26B1C85
:1056E00016D0B8235D43DFF83C900F2009EB050688
:1056F000A6F81280378205F035FA0146304608F0E8
:1057000014F905F118004844402107F0C4F805E0F9
:10571000FF2403E0B9F1FF3FDAD1D8E760B2BDE87A
:10572000F08700BFE8440020004500202DE9F04F3D
:10573000A44CDFF8C8A287B000268AF80060267063
:1057400005F032F9A04DA0462860042005F0F8F9D4
:105750009E4B2A6800B218605778137847EA0327EF
:1057600003F0F803C02B02D0E02B19D03AE0907878
:105770002378D278C7F30A07043342EA0020394677
:1057800032462370FFF740FFB0F1FF3F814600F043
:1057900081828F4CB82303FB00440126223424E08D
:1057A0001379D17890782278C7F30A0705322270EE
:1057B00041EA00201A4639460093FFF725FFB0F171
:1057C000FF3F814600F066828149B82202FB001249
:1057D000958A4FF0010BBD4234BF002501253446A8
:1057E000009BE0E1B1464F467A4C296898F800509A
:1057F0004A5D02F0E003602B40F0B781A81C08442A
:1058000029444D78744B5FFA85FC1CF0800F1860BA
:105810001CBF0130186012F0100F02F0080130D1E7
:10582000D1B9196831F8010FA4F801008978E17045
:10583000196811F8040B1960830803F00F0141F097
:1058400060012170617803F0300343EA801301F0B6
:105850000F010B43637030E01868602186462170A9
:105860001EF8011B03304FEA910B0BF0300B01F0D7
:105870000F014BEA01016170BEF8001018606180F1
:105880001BE001F0FF0E99B919680878C0F3830096
:1058900040F06000207011F801BBA4F802E04FEA6C
:1058A0009B0000F0300040EA8B106070196004E04B
:1058B0006023237000236370638002F0040303F00D
:1058C000FF0100912BB944490B6813F8010BA0713B
:1058D0000B6012F003020BBF3F4A404B13689B5C06
:1058E00009BF13F8011BE3711360E1716B06C5F387
:1058F000011233D51CF0800F1DBF334998F80030DA
:10590000096800211EBF5B189978090922B904F1C2
:10591000080B9AB9114614E0314B1878012805D1CB
:10592000587888420CBF1946002100E000212D4B19
:1059300019600029EBD1B3460D4633E1294B1968B4
:105940000231294B0F209A5C0391CDF808C00192D7
:1059500005F008F90399034658460BE0234B0F2046
:105960009A5CCDF808C0019205F0FCF82049034686
:1059700004F10800019AFFF7A5FA05F00800DDF828
:1059800008C005F0030200F0FF0105F00403002841
:1059900036D0002B6CD1174B1B88ADF81430531E3A
:1059A000012B9FBF0C490B6813F8010B0B60124BC6
:1059B00098BF8DF815009A5C04F1180005A9002322
:1059C00054E000BFF25A0020D8440020D044002008
:1059D000E8440020045E0020D44400202EE0200093
:1059E0009C550020CC44002047E0200032E02000FD
:1059F00036E020002CE0200038E020009B550020FD
:105A000053B31CF0800F1DBFA44998F800300968FB
:105A10000B4618BF5B18A24918BF9D78087818BFBD
:105A200005F00F03012805D14D789D420CBF0D46AE
:105A3000002500E000259B4B1D60002D00F0AE808E
:105A4000994B10209A5C019205F08CF8A91C034632
:105A5000019A04F1180009E0944B10209D5C05F0B8
:105A600081F82A469249034604F11800FFF72AFA02
:105A70009AF800008F4900F128038AF80030009B53
:105A8000002B53D00B681A7802F0F802F02A4DD19F
:105A90001122A2711A7802F0040502F0F302F03A22
:105AA000EDB2032A7CD8DFE802F0020A1622B3F82E
:105AB00001200533228533F8022C62852CE0B3F8EF
:105AC00001202285DA78A2F5805292B2120242F0C9
:105AD000F002628509E05A78A2F5805292B2120271
:105AE00042F0F00222855A886285043314E05A7825
:105AF00002331209A2F5756292B2120242F0F0026C
:105B0000228513F8012C02F00F02A2F5756292B201
:105B1000120242F0F00262850B6025B90B6833F87F
:105B2000022BE2850B6030308AF800005B4A0B687C
:105B300012689B1A88F8003067B904F023FF5E4BA7
:105B40001B78C01A9AF800301844283803122371C1
:105B5000607104E0A7F128031A1222716371A3791E
:105B6000112B1DD1A388A3851AE0412A40F0928011
:105B70006A1CD2B28B18224603F1280153F8040B99
:105B80008B4242F8040BF9D105F1290388F8003063
:105B90009AF8003028338AF8003001E0B34601E07B
:105BA000B34600252B46009304F0ECFE98F8002045
:105BB00082426FD804F0E6FE3F4A40491278009BCB
:105BC000C2EB0008C1F8008040F214519AF800A01E
:105BD000DB009BB2534443448B425BD83CB12F4B18
:105BE00004EB0A0019681144424606F0EDFB002F51
:105BF00039D056B132484FFA89F3B82404FB030375
:105C000008EB0A0189B29982198495B3B8224FFA38
:105C100089F402FB04F32A492A48CA1811469782DC
:105C20002231128C06F0D0FB274D05F24C5615F8A8
:105C3000012C5AB115F8033CA34207D115F8020C08
:105C4000204B294603EBC00006F0BEFB7135B54280
:105C5000EDD15FFA89F0FFF735F8BBF1000F0BD0FB
:105C60001A4B1F800CE0BBF1000F05D0002DF7D1BF
:105C700010E0BBF1000F0DD1144BD044A3F800800D
:105C8000134C236823B1FFF795F823685B689847A6
:105C900002F074F907B0BDE8F08F00BFD8440020CF
:105CA0009C550020CC44002047E0200032E020003A
:105CB00036E02000D4440020F25A0020DC440020CA
:105CC000E8440020045E0020A9550020F05D00207B
:105CD000E444002037B5124B124D1C782B796A79B9
:105CE000C4EB032313449BB2ADF80630BDF8063075
:105CF00005F108011844202280B206F0B0FEBDF87C
:105D0000062004F12801294492B206F0A8FE10B141
:105D100040BA80B201E04FF6FF7003B030BD00BF63
:105D2000F35A0020045E002028492DE9F0418846FE
:105D30000D78274E2835AB195C782648E4000734E7
:105D400002239C423DDBE9187218715C204F012947
:105D500032D002D3632902D013E001332FE0037065
:105D600018461C4C02F0E4FDD8B998F800302278AF
:105D7000283313443B445B78134402332370BDE85B
:105D8000F08101F0C001802905D0C02905D040294B
:105D900012D1037005E0037006E03A7E0370FF2A1B
:105DA00002D10120BDE8F08104200221EA1801F0AF
:105DB000AFFF0220BDE8F081527802321344DBB21B
:105DC000BFE703700020BDE8F08100BFF35A002058
:105DD000045E0020F95A0020F0B5C578124A0D443F
:105DE000EDB2D57083780F0A3B44DBB293704478F0
:105DF000BB4254700678167005D2601CC0B2507059
:105E000008B901361670C9B28D420CDA0133DBB223
:105E1000054993703BB94B780133DBB24B7013B932
:105E20000B7801330B70F0BDF85D002010B5084C05
:105E3000014620681430FFF7CFFF064A2368117827
:105E40001975517859759178D2789975DA7510BDB0
:105E500028630020F85D002008B501F0DDFA02F0AB
:105E600043F806F08AFE00231149002221F813208E
:105E70000133DBB2082BF7D10E49302303FB0211AB
:105E80000132D2B200230A2A81F82530F4D10A4A1D
:105E90004FF480611180094A002102EB4312013363
:105EA000DBB20A2B1182F6D1054A137008BD00BF80
:105EB000146500202C6300202C4D0020306500204C
:105EC000FA5A00202DE9F041124F3D7805B3DFF872
:105ED0004C8005F12703B8F80040A34203DB002300
:105EE000A8F8003013E00C4EA4F1280205F12801B7
:105EF000641BA4B206F128003144521B06F0DAFA02
:105F0000A8F80040283C23123371747100233B70C1
:105F1000BDE8F081F35A0020045E0020F05D00200F
:105F20002DE9F041034626480288013292B2B2F5CB
:105F3000FA4F28BF4FF4805200240A2C0AD0214D7A
:105F400005EB44152E8A55BAADB2AE4204F10104F8
:105F5000F3D1EAE7DFF874E0028000220A2A18D0C1
:105F6000184E55017419B4F81080571CFFB2B8F1DF
:105F7000000F0CD18EF800200288618252BA228272
:105F800063B920461946102206F0F8FA11E03A46A5
:105F9000E4E78EF800200020BDE8F081274603F1F9
:105FA000100E3A4618685968083303C273451746FD
:105FB000F7D1054B35441B7920462B75BDE8F081A0
:105FC0002C4D00203065002078660020FA5A002011
:105FD00030B50A490023082B0DD0094C5A1C34F85F
:105FE0001350D2B2854204D100220B7024F8132042
:105FF00030BD1346EFE70B7030BD00BFFA5A0020EA
:10600000146500202DE9F04FA14F042893B03C689F
:10601000A04E00F0B582A049A04DA14A03280D6012
:1060200015608A4616D194F8253003F00F03032B30
:1060300008D1A38B002B40F003879A4B08221A70DB
:1060400000F0FABD022B40F0FB86002305F8073C68
:1060500000F030BC02287AD1934A00231370934A8F
:1060600033801380924AD3780133DBB2D37063B9A3
:1060700093780133DBB293703BB953780133DBB2D1
:10608000537013B913780133137094F8253003F06B
:10609000FD02052A0DD194F826300133DBB2782BAE
:1060A00084F8263040F0CC86002384F8253000F0B8
:1060B000C7BE002B00F0C486A28B7A48002A3DD0D0
:1060C00094F82620511E84F82610002A40F0B88645
:1060D00094F82720082A04D0591E01290AD8052A35
:1060E00008D1002384F825308023037002F08EF855
:1060F00000F0B0BD042A9CBF0321914003F00F03C0
:1061000094BFC9B230210132013B84F8261084F8D3
:106110002720072B00F29486DFE813F0C80308005D
:106120000A00550592065505920655050022BEE364
:106130000423037002F06AF800F0AEBD03F00F0311
:10614000032B40F07D860823037000F075BD052801
:1061500011D1584B1B681B8A002B00F071860C3D37
:106160001560524A002313803B6033804D4B082258
:106170000D601A7002E215F83C3C3C3D03F0F00360
:10618000602B40F05D862B796A791B023188981864
:10619000884200F355862832134433802B7AFF2B34
:1061A00000F04E86444BAA1D1A60444C3E4A002122
:1061B00011702170A97990469946C1B901232370C5
:1061C000FFF7B2FD012800F03B8603D3022800F060
:1061D00033860CE098F8003003F128022A44C9F80D
:1061E00000205278083303EBC20388F800303448AB
:1061F00000F096FE324F002840F0C980384600F08B
:10620000DBFF002840F0C380384600F09FFE0028E6
:1062100040F0BD80384601F047F8002840F0B780D4
:106220002A7E183FFF2A64D048F2FE013B8B8B4246
:106230005FD03B898B425CD073B97B8963B9BB89E2
:1062400053B9E98941B9398A31B9798A21B9B98A09
:1062500011B9FB8A002B4CD0298B1A4B79B9598B79
:1062600069B9998B59B9D98B49B9198C39B9598CF4
:1062700029B9998C19B9DB8CB3F5807F39D0338873
:10628000B3F5A06F20D9022000214FF4A06222E0D4
:1062900028630020F05D002024630020405E002081
:1062A000F45D002018630020F35A00202C650020C4
:1062B000F55A0020206300201C630020F45A0020BF
:1062C0001C5E0020045E0020EB799B4C012B06D85D
:1062D00000210A46032001F01BFD00F0ADBD02F0D5
:1062E000B1FB002840F0AC85E379013BE37100F09D
:1062F000A3BD48F2FE032989994240F0A185298B6C
:106300008D4B81B9598B71B9998B61B9D98B51B9C1
:10631000198C41B9598C31B9998C21B9DB8CB3F501
:10632000807F00F08D85FF2A00F08A85834800F089
:10633000D7FD0246002840F0838501200221CAE7EC
:106340002ED8BBF1060F00F05781BBF1110F00F002
:10635000A180BBF1000F78D121780093CB0774D4D2
:10636000774A41F001011170FFF7DEFC012800F0CF
:106370006785009B36D298F8002002F12801294455
:1063800019604B78083202EBC30288F80020D9F874
:1063900000206C4B92F800B0BBF12B0FD0D133E052
:1063A000BBF13A0F55D004D8BBF12C0F00F0488553
:1063B0004BE0BBF13B0F00F04385BBF13C0F44D1F8
:1063C00023785F49980704D558063ED443F040032C
:1063D00001E043F002030B70FFF7A6FC012800F078
:1063E0002F8503D3022800F02785D0E798F80030E6
:1063F00003F128022A44C9F800205278083303EB3D
:10640000C20388F80030C2E7207800F0040E0EF0D6
:10641000FF01BEF1000F18D1494A40F0040010708E
:1064200098F8002002F12800284490F803E0BEF11B
:10643000000F02D004202A324DE71860437808325A
:1064400002EBC302404B1A70A1E704200121521B4A
:1064500041E706F020FB4FF6FF73984240F0F084CE
:1064600098F800302833E85C01F074FD98F80030AB
:106470002833EA18E85C517801F028FC012801BFB4
:106480000023314A338013703388002B00F0D88406
:1064900000F0D2BCFFF716FDEB8D85F806B04BB9C6
:1064A000B5F82A80B8F1000F00F0CA84274F284BB6
:1064B0003B6011E006F0F5FA4FF6FF73984240F0AA
:1064C000BF84EDE70DF1280E94E80F008EE80F0071
:1064D000238A33B920343C603C681E4B9C42F1D384
:1064E00026E09845F6D1638A13B12A8D9A42F1D1FC
:1064F000BDF82830A3B9BDF82A308BB9BDF82C30CF
:1065000073B9BDF82E305BB9BDF8303043B9BDF872
:1065100032302BB9BDF8343013B9BDF83630EBB199
:106520000D487146102205F01DFF0028D2D115E05C
:10653000012004210022CEE6045E00201C5E002023
:10654000F45A00201C630020F35A0020206300202E
:1065500030650020706600200C5E00203388BE4944
:10656000303B338000230B60BC490220BC4A0870DA
:10657000BC49CAF800200A60BB4A138001F046FEFD
:10658000B94B1A88002A00F05B8402F13003B74C43
:106590009BB23380283B19126371B54B08321B68DC
:1065A00052BA2171197DA2850022E2851A8AE17111
:1065B00022855A8A11216285A17104F1180602AD63
:1065C0000FCB85E80F0086E80F0004F10800314684
:1065D00000F080FEA74B04F13C021A6006F061FA5D
:1065E000C04380B208B1E08502E04FF6FF73E38557
:1065F00002F06EFB00F01ABCFFF764FC85F806B0F1
:1066000006F04CFA4FF6FF739842984C40F018840D
:10661000B4F82A90B9F1000F00F01284B4F828B051
:10662000BBF1000F00F00C84914B12AC1B680FCB38
:1066300004E90F00904C234694F825C0BCF1000FEC
:1066400013D0228A4A4510D1628A5A450DD18B480F
:106650000EA910220193CDF800C005F083FEDDF8ED
:1066600000C0019B002800F03B81854A30349442F1
:10667000E2D195F8352002F03F02022A16D1814975
:10668000DFF810828A46A1F800900022082A0BD079
:106690007D4931F8121001328945D2B2F6D100227B
:1066A00088F80020144658E088F8002095F8352036
:1066B0006E4B510700F1C483142283F835203C222D
:1066C0003280502283F8342093F8332093F83140FD
:1066D00093F82F0083F82F2093F8322093F82E1090
:1066E000DFF8B0E183F82E2093F82D2083F82D40B9
:1066F00093F82C4001308EF8004093F830E0C0B29F
:1067000083F8321083F8312083F82CE083F830408E
:1067100083F8330060B90131C9B283F8321039B956
:106720000132D2B283F8312012B9621C83F83020D2
:106730002B8D544A514C13806A8D6B852A8594E8C1
:106740000F0087E80F00204604F1100100F0C2FDA1
:1067500057E3072F0FD00132D2B20A2A15D03021C9
:1067600001FB023101F120004779002FF1D188F8B7
:1067700000200C460EE024B1807994F8261088425F
:10678000E9D9302404FB0234E5E788F80020002C26
:1067900000F05683304B00271C60032384F826301A
:1067A00084F82430042384F82330344B84F8227096
:1067B0000FCB84E80F00354B01201A7884F82500B0
:1067C00022765A78A08362769A78DB78A276E3768E
:1067D00095F82C3084F82770237595F82D30A4F89F
:1067E0001090637595F82E30A4F812B0A37595F843
:1067F0002F30E375FFF71AFB95F8343003F0F00201
:10680000502A53D9224A1B09053B98003B4617469C
:106810001178834247DAEA1892F83C10002942D0F6
:10682000012901D101333CE0022935D192F83DE044
:10683000BEF1040F30D1397088F8003092F83E1064
:1068400092F83F3043EA0123402BAAF8003028BFDA
:106850004023E383238429E0286300201863002079
:10686000345E0020F45D00202C650020045E0020D2
:1068700020630020246300202C6300200C5E002095
:106880000C6500202A4D002014650020F55A0020D8
:10689000FB5A0020FA5A0020EA1892F83D2012B163
:1068A0001344DBB2B5E7397088F800301022AB4BE7
:1068B00083F83520A94B93F8352042F0020283F883
:1068C0003520022283F83C20042283F83D20002258
:1068D00083F83E20402283F83F203280602250E23D
:1068E0009F4BA04A1C6095F83530107003F00401EE
:1068F00001F0FF0921B1202384F825001370EFE196
:10690000964A0CF00F0C92F83420BCF1020F4FEABB
:1069100012124FEA8201944A11703288A2F12802C1
:10692000A2EB010292B2328003D103F03F0112299F
:1069300005E0BCF1010F03D103F03F01022916D09D
:106940000AB99A0713D0A98DA28A914204D1834A29
:10695000D18DE28A91420AD09F0740F10B82BCF1AF
:10696000010FA3D0BCF1020F40F00482A2E7D806C9
:1069700052D5A18B00294FD004F11800FFF72CFA53
:106980007A4B95F830101878744A884244D192F8BE
:10699000311093F801C08C453ED192F832E09978DD
:1069A000714539D192F83320DB78934234D1E376C4
:1069B00094F82730207684F819C0A1761BBB94F890
:1069C000243094F8261094F82200591AA1EBD00133
:1069D000C9B25FFA81FE1EF0800F94F8233008449C
:1069E00018BF4942A3EB930318BF5FFA81FE03EB84
:1069F0000E02C0B2D3B284F8233003EBD00384F884
:106A0000220084F82430574B01221A7094F8243065
:106A100084F826300023A38394F82510DFF844B1CE
:106A200001F00F02013A072A00F20A82DFE812F0B1
:106A300008002500A6005B017D019701A2014D0120
:106A40009BF80030474AD9070FD5032384F8253037
:106A50003088402313700023A383002800F0E980CE
:106A600042231370FFF7E2F9E3E095F8353003F0C5
:106A70003F03022B40F0E48118E79BF80020D30786
:106A800060D595F8352002F03F02122A5AD1334BD7
:106A900093F8343003F0F002502A36D9344A1B09F7
:106AA0001746053B117830489B0099452ADA05EBDB
:106AB000090292F83C1029B3012902D109F1010918
:106AC0001DE0022915D192F83DE0BEF1040F10D16E
:106AD00092F83F30397092F83E10264A43EA01237B
:106AE000402B138028BF402380F80090E383238449
:106AF0000BE005EB090292F83D201AB191445FFAD0
:106B000089F9D2E7397080F80090032384F82530A2
:106B100095F82C300120237595F82D30637595F884
:106B20002E30A37595F82F30E375FFF77FF90D4AE6
:106B300042231370104A0023A383338088F8003067
:106B4000138079E020228BF8002001F05FFB044BDA
:106B500000221B6883F82520A8E500BF045E002002
:106B60002863002018630020FA5A0020F85D0020F6
:106B7000FB5A00202A4D00202C65002095F8352076
:106B8000D70725D5C80623D4A28B002A40F0588108
:106B90003088013080B2FFF749F99BF80020338834
:106BA00042F010018BF800101BB1AB4B42F0120207
:106BB0001A7001F02BFB0123A383082384F82530EE
:106BC000002384F827301122A44B83F83520D4E029
:106BD00093060DD595F83A0095F83B2042EA00223D
:106BE000DAF800001044CAF800003088821A3280B7
:106BF000308848B1CF0607D49BF8002042F002024B
:106C00008BF80020FFF712F995F8361095F8372029
:106C1000208C02EB012292B2914982420A8000D874
:106C200002B908809BF800300A889907E28300F0D7
:106C300007818C4B00221A8001F0E8FA864B1A7803
:106C4000884B02F0200000F0FF0128B100221A80DA
:106C500084F825201422B7E702F0100000F0FF05A9
:106C600040B119800123A383042384F8253084F8DC
:106C70002710A8E7198861B1D20748BFA583A28B66
:106C800032B9E28B914288BF1A801B88A38300E04F
:106C90001A80002384F82730734B1B68CAF8003031
:106CA000704B1B882BB1A38B1BB13C333380182254
:106CB00007E0694B1B789F0740F1C2803C2333807B
:106CC0001022664B83F8352059E09BF80030DD0731
:106CD00040F1B680002384F825305F4B10221A70F3
:106CE00001F094FAACE0308808B1FFF79FF895F80E
:106CF000352012F001020FD09BF80020D00745BFCD
:106D0000072284F825200622002246BF84F8262088
:106D1000A28384F8252016E09BF80030D9071BD504
:106D2000052384F82530A2838AE0308808B1FFF774
:106D30007DF895F83520D2070ED5072284F8252056
:106D4000002284F826200120FFF770F810228BF82B
:106D5000002001F05BFA0DE033885BB970E09BF82E
:106D60000030DB076CD5072384F82530002384F836
:106D7000263065E0102385F835303C233380374BCF
:106D8000502283F83420237D344D06AF85F830300F
:106D9000637D05F1180E85F83130A37D85F832301A
:106DA000E37D85F83330237E85F82C30637E85F8CB
:106DB0002D30A37E85F82E30E37E85F82F30238A90
:106DC0002B85638A6B85294B1B680FCB87E80F00E7
:106DD0008EE80F0005F10800714600F07BFA94F888
:106DE000253003F0100303F0FF022BB1002385F8D8
:106DF000373085F8363004E0402385F8362085F8B2
:106E00003730164C0623A371194B1B79E371338875
:106E1000283B1A1263710023227184F83B3084F8F6
:106E20003A30238705F03AFEC04320870B4B60229F
:106E30001A7000225A705A80074B00221A7007E01D
:106E40000C4A002313700C4A33801370024A1370EB
:106E500013B0BDE8F08F00BF18630020045E00206F
:106E60002A4D00202C650020F45D002020630020C6
:106E700078660020F35A0020F45A00202DE9F341EF
:106E80000446154D00910E4690461F460195234637
:106E900012480321202205F011FE01282B4616D1AD
:106EA0002A6804F11001107020462A68023250F856
:106EB000044B884242F8044BF9D11868089B867449
:106EC0004361099B80F813800777836100E000200D
:106ED00002B0BDE8F08100BF5C460020746700206E
:106EE00070B506460B4D0C4B2B602C680B4B9C422F
:106EF0000BD2237833B1A27CA01C3146D20805F016
:106F000031FA20B120342C60EFE7002070BD012061
:106F100070BD00BF5C46002074670020D46700206D
:106F200013B5084C802203460092019406480321C1
:106F3000202205F0C3FD08B9206800E0002002B05F
:106F400010BD00BF604600209066002013B5084CBD
:106F5000802203460092019406480321202205F076
:106F6000ADFD08B9206800E0002002B010BD00BFF0
:106F700060460020FC67002010B50C4A0C4B1360E3
:106F800013680C498B420DD2197849B1411C02D0CB
:106F9000997C814204D148F2FE015C888C4202D087
:106FA0002033ECE70023184610BD00BF60460020E8
:106FB00090660020F066002010B50C4A0C4B136060
:106FC00013680C498B420DD2197849B1411C02D08B
:106FD000997C814204D148F2FE015C888C4202D047
:106FE0002033ECE70023184610BD00BF60460020A8
:106FF000FC6700205C68002037B504460F4D8023F5
:107000000093019523460E480521122205F056FDF6
:1070100001282B460ED12A6804F110011070204679
:107020002A68023250F8044B884242F8044BF9D1E6
:10703000186800E0002003B030BD00BF58460020B3
:1070400014670020F7B50546204C802300930E46B8
:10705000174601941E48032120222B4605F02EFDE1
:10706000012830D12A46236805F1100118702368E1
:10707000023352F8040B8A4243F8040BF9D120681A
:10708000C77416B90123037505E000230375314663
:10709000183005F0F1FB23680E4801219974022392
:1070A0004370FF220023027043808380C3800381EA
:1070B0008372C17202736B7B4373EB89C381FFF7E9
:1070C0009BFF206800E0002003B0F0BD6046002078
:1070D000906600202E4D0020F7B50546204C8023F9
:1070E00000930E46174601941E48032120222B468A
:1070F00005F0E4FC012830D12A46236805F110018F
:1071000018702368023352F8040B8A4243F8040BC8
:10711000F9D12068C77416B90123037505E000236F
:1071200003753146183005F0A7FB23680E4801218E
:10713000997402234370FF220023027043808380EE
:10714000C38003818372C17202736B7B4373EB89CB
:10715000C381FFF751FF206800E0002003B0F0BDBD
:1071600060460020FC6700202E4D002037B5044605
:107170000F4D80230093019523460E4805211222CE
:1071800005F09CFC01282B460ED12A6804F1100161
:10719000107020462A68023250F8044B884242F8A8
:1071A000044BF9D1186800E0002003B030BD00BFE7
:1071B000584600208068002013B5084C8022034602
:1071C0000092019406480521122205F077FC08B9C7
:1071D000206800E0002002B010BD00BF584600202B
:1071E0001467002038B50546C8B10D4802220024B6
:1071F0004270FF230122C27244808480C4800481D3
:10720000847203730370EB7B43732B8AC381FFF794
:10721000D3FF044A106008B105F074FC2C7038BD2F
:107220002E4D00205846002038B5194C194B2360CC
:107230002068194B164D98420DD2037843B1037D57
:1072400033B91830FDF7DCFB10B12868FFF7CAFF2F
:1072500023682033EBE7114B2B602068104B9842DA
:107260000FD203784BB1037D3BB91830FDF7C8FB53
:1072700018B1074B1868FFF7B5FF23682033236068
:10728000EBE700F017FCBDE83840064805F0D2BA3D
:107290006046002090660020F0660020FC67002019
:1072A0005C680020D467002013B5084C8022034698
:1072B0000092019406480521122205F0FFFB08B94F
:1072C000206800E0002002B010BD00BF584600203A
:1072D000806800202DE9F8430E460446FBF740FB8A
:1072E000022848F2FE03328840D19A4223D03378F4
:1072F000FF2B20D0394B0027B9469846384A1A60F0
:10730000D8F80050374A954219D22B787BB1AB7C24
:10731000012B0CD148F2FE036A889A4207D030460E
:10732000A91C05F0FCFB484524BF2F4681462035AB
:10733000C8F80050E4E70120FFF73EFE074657B9C2
:10734000002323806380A380E38023816381A38162
:10735000E381BDE8F883BB1C07F1120053F8042B4E
:10736000834244F8042BF9D1BDE8F8839A4223D034
:107370003378FF2B20D0194B0027B94698461A4A7C
:107380001A60D8F80050194A954219D22B787BB16F
:10739000AB7C012B0CD148F2FE036A889A4207D0DD
:1073A0003046A91C05F0BBFB484524BF2F4681464B
:1073B0002035C8F80050E4E70120FFF7DDFD07465F
:1073C000002FBDD0BB1C07F1120053F8042B8342E1
:1073D00044F8042BF9D1BDE8F88300BF60460020D3
:1073E000FC6700205C68002090660020F0660020AA
:1073F00010B5FDF795FB0446FDF792FB054B240203
:107400009A68A4B22044B0FBF2F302FB130000EB35
:10741000520010BD786600202DE9F347534E544DBD
:1074200000F0CAF8F82400F055F900216022514814
:1074300005F0A4F822463046002105F09FF800210F
:107440002246284605F09AF84B4B20221A70DFF8A6
:1074500044914A4B402718224FF4A06A1A70C6F88C
:1074600000A03771C6F8089042F21078FFF7C0FF0D
:107470000024C6F810803475C5F800A02F71C5F837
:107480000890F060FFF7B4FF48F2FE0A40F2FF26D2
:10749000E860C5F810802C75394D2346A5F800A08A
:1074A0006C80AC80EC8022463946009401942846DA
:1074B000FFF7E4FC2846334905F028FB214601226A
:1074C0002846FFF709FE4FF480794FF400782846EC
:1074D0002E806C80AC80EC802C816C81AC81A5F816
:1074E0000E90FFF743FE2E806C80AC80EC802C81E8
:1074F0006C81AC81A5F80E802846234DFFF736FE3F
:107500002346A5F800A06C80AC80EC80224639466A
:10751000009401942846FFF7B1FC28461B4905F06A
:10752000F5FA214601222846FFF78CFD28462E80D9
:107530006C80AC80EC802C816C81AC81A5F80E90C5
:10754000FFF75AFD28462E806C80AC80EC802C81A1
:107550006C81AC81A5F80E80FFF74EFD0C480C2124
:1075600002B0BDE8F04705F05CB900BF78660020C6
:10757000E4670020746700207167002070670020B6
:107580003E4D0020246500202E4D0020FC5D002093
:10759000D4670020C027090010B5044640B100F0B0
:1075A0005FFF044B2146BDE81040186803F084B922
:1075B00010BD00BFCC400020024B0349186803F007
:1075C0009FB800BFCC4000209975200070B51E46C2
:1075D0000C4B04469DF810201868059B03F0BEF87C
:1075E000054668B120462B4604F1100250F8041BF2
:1075F000904243F8041BF9D16E74284600F030FF26
:10760000284670BDCC400020024B0146186806F0A9
:10761000F6B900BFCC40002070B50C4D0646286876
:1076200003F082F8044666B9002070BD204631465A
:10763000102204F097FE38B12146286806F0AFF911
:107640000446002CF2D1EFE7204670BDCC4000206C
:10765000024B0146186806F0B9B900BFCC400020C3
:1076600070B5054610200C4603F07CFA0649064624
:1076700006F060F930B9304629462246BDE8704030
:1076800000F0B6BE70BD00BFCFEB20002DE9F04189
:1076900005460D480F46904605F020F9044688B18E
:1076A000012D04D8094805F04FF9034601E0084BC5
:1076B0001B682846666839464246B047204605F0B2
:1076C0004AF9EBE7BDE8F08130490020A8460020E8
:1076D000A446002008B50B4805F040F90A4805F01B
:1076E000FAF80A4B0A49186803F00AF8094805F045
:1076F00035F9094805F0EFF8BDE80840074805F0FE
:10770000EAB800BF004100204C470020FC400020A8
:1077100077CB2000E0400020A84600203049002020
:1077200008B5034640B1054A5968106806F067F984
:10773000BDE8084005F010BA08BD00BFFC400020BD
:10774000014805F0CBB800BF4C47002008B505F054
:1077500005FA014638B1044B186806F037F90030D5
:1077600018BF012008BD08BDFC400020014B18686F
:10777000704700BFA44600202DE9F0418046FFF786
:10778000DFFF0026044637469CB194F82450B542EA
:107790000AD3404604F10801EA0804F0E3FD18B9F1
:1077A000802D08D02E462746204605F0E0F90446F5
:1077B000EAE73C4667B1084805F090F8844207D0F4
:1077C0000548214605F094F80348214605F0B3F832
:1077D0002046BDE8F08100BF4C47002038B5044684
:1077E00000283ED04368002B3BD01E48214605F0C0
:1077F0007FF86368586805F071F8054630B1436852
:10780000A34207D0284605F0A6F8F6E704F10800E1
:1078100000F030FD63682946586805F069F8636830
:10782000586805F05BF828B963680F4A5968106812
:1078300003F042F821460D4805F0B4F829460C48FB
:1078400005F0B0F80B4A20461368013B1360FFF7C0
:1078500067FF04F108010246BDE838400320FFF746
:1078600015BF38BD4C470020FC40002000410020DF
:107870000C410020A446002010B5044680B14068A9
:1078800070B105F02BF820B14068FFF7A7FF6068E2
:10789000F7E7044B2146BDE81040186803F00CB828
:1078A00010BD00BFFC4000202DE9F84F07461046F0
:1078B0008946904605F052F9834610B90020BDE88C
:1078C000F88F3846FFF758FF044660B1FFF728FFEE
:1078D000014628B14046102204F044FD002859D04A
:1078E0002046FFF77BFF2D4B1A689A460A2AE5D0FF
:1078F0002B4E5946306806F069F8054668B92B46A4
:1079000030685946042202F029FF05460028D5D0E8
:1079100000236860036004F0DEFF224805F02EF8C3
:1079200004460028CAD02048214605F004F81F4824
:1079300005F024F8834620B921461A4805F032F8AC
:10794000BCE744606868594604F0E6FFDAF80030A6
:107950006560013330682946CAF8003002F0C2FF82
:107960003B4604F1080507F110062A4618685968D5
:10797000083303C2B3421546F7D100210C2284F824
:10798000249004F1180004F0F9FD02203946424623
:10799000FFF77CFE2046BDE8F88F00BFA44600201C
:1079A000FC400020004100204C4700200C410020FA
:1079B00038B505460D4804F091FF0446A0B1AC422D
:1079C0000ED12146094804F093FF2146084804F0EF
:1079D000E9FF211D01200A46BDE83840FFF756BEE9
:1079E000204604F0B8FFE8E738BD00BFA8460020F5
:1079F000E040002038B50546084804F06FFF044613
:107A000048B1201D2946102204F0ACFC18B12046D4
:107A100004F0A1FFF3E7204638BD00BFA8460020D0
:107A2000F8B505460F46FFF7E5FF044640B9134891
:107A300004F0A4FF0446F0B11148214604F07BFF96
:107A40002B46261D05F1100E32461868596808337A
:107A500003C273451646F7D137B104F11400394615
:107A600004F00AFF002300E00123237700202946C9
:107A70002A46FFF70BFE2046F8BD00BFE04000207D
:107A8000A846002038B50A4804F028FF044600251F
:107A90005CB1251D2846FFF7BFFD08B1437C23B923
:107AA000204604F058FF0446F2E7284638BD00BFE0
:107AB000A846002010B50A4804F010FF044670B133
:107AC000237F43B904F11400FCF79AFF18B1204654
:107AD000FFF76EFFEFE7204604F03DFFEEE710BD35
